{
  "_format": "hh-sol-artifact-1",
  "contractName": "DonationContract",
  "sourceName": "contracts/DonationContract.sol",
  "abi": [
    {
      "inputs": [
        {
          "internalType": "uint16",
          "name": "_divisionFee",
          "type": "uint16"
        },
        {
          "internalType": "address",
          "name": "_campaignReceiver",
          "type": "address"
        },
        {
          "internalType": "string",
          "name": "_campaignIpfs",
          "type": "string"
        },
        {
          "internalType": "uint256",
          "name": "_amountRequesting",
          "type": "uint256"
        },
        {
          "internalType": "uint256",
          "name": "_campaignEndTime",
          "type": "uint256"
        }
      ],
      "stateMutability": "nonpayable",
      "type": "constructor"
    },
    {
      "anonymous": false,
      "inputs": [
        {
          "indexed": true,
          "internalType": "address",
          "name": "campaignAddress",
          "type": "address"
        }
      ],
      "name": "CampaignEnded",
      "type": "event"
    },
    {
      "anonymous": false,
      "inputs": [
        {
          "indexed": true,
          "internalType": "address",
          "name": "sender",
          "type": "address"
        },
        {
          "indexed": false,
          "internalType": "uint256",
          "name": "amount",
          "type": "uint256"
        }
      ],
      "name": "Donation",
      "type": "event"
    },
    {
      "anonymous": false,
      "inputs": [
        {
          "indexed": false,
          "internalType": "uint256",
          "name": "amountToWithdraw",
          "type": "uint256"
        }
      ],
      "name": "UnknownDonation",
      "type": "event"
    },
    {
      "inputs": [],
      "name": "admistrator",
      "outputs": [
        {
          "internalType": "address",
          "name": "",
          "type": "address"
        }
      ],
      "stateMutability": "view",
      "type": "function"
    },
    {
      "inputs": [
        {
          "internalType": "uint256",
          "name": "amount",
          "type": "uint256"
        }
      ],
      "name": "afterFee",
      "outputs": [
        {
          "internalType": "uint256",
          "name": "",
          "type": "uint256"
        },
        {
          "internalType": "uint256",
          "name": "",
          "type": "uint256"
        }
      ],
      "stateMutability": "view",
      "type": "function"
    },
    {
      "inputs": [],
      "name": "amountRequesting",
      "outputs": [
        {
          "internalType": "uint256",
          "name": "",
          "type": "uint256"
        }
      ],
      "stateMutability": "view",
      "type": "function"
    },
    {
      "inputs": [],
      "name": "campaignEndTime",
      "outputs": [
        {
          "internalType": "uint256",
          "name": "",
          "type": "uint256"
        }
      ],
      "stateMutability": "view",
      "type": "function"
    },
    {
      "inputs": [],
      "name": "campaignIpfs",
      "outputs": [
        {
          "internalType": "string",
          "name": "",
          "type": "string"
        }
      ],
      "stateMutability": "view",
      "type": "function"
    },
    {
      "inputs": [],
      "name": "campaignOpen",
      "outputs": [
        {
          "internalType": "bool",
          "name": "",
          "type": "bool"
        }
      ],
      "stateMutability": "view",
      "type": "function"
    },
    {
      "inputs": [],
      "name": "campaignReceiver",
      "outputs": [
        {
          "internalType": "address",
          "name": "",
          "type": "address"
        }
      ],
      "stateMutability": "view",
      "type": "function"
    },
    {
      "inputs": [],
      "name": "campaignSuccess",
      "outputs": [
        {
          "internalType": "bool",
          "name": "",
          "type": "bool"
        }
      ],
      "stateMutability": "view",
      "type": "function"
    },
    {
      "inputs": [],
      "name": "closeCampaign",
      "outputs": [],
      "stateMutability": "nonpayable",
      "type": "function"
    },
    {
      "inputs": [],
      "name": "divisionFee",
      "outputs": [
        {
          "internalType": "uint16",
          "name": "",
          "type": "uint16"
        }
      ],
      "stateMutability": "view",
      "type": "function"
    },
    {
      "inputs": [],
      "name": "donate",
      "outputs": [],
      "stateMutability": "payable",
      "type": "function"
    },
    {
      "inputs": [
        {
          "internalType": "address",
          "name": "",
          "type": "address"
        }
      ],
      "name": "donations",
      "outputs": [
        {
          "internalType": "uint256",
          "name": "",
          "type": "uint256"
        }
      ],
      "stateMutability": "view",
      "type": "function"
    },
    {
      "inputs": [
        {
          "internalType": "uint256",
          "name": "",
          "type": "uint256"
        }
      ],
      "name": "donators",
      "outputs": [
        {
          "internalType": "address",
          "name": "",
          "type": "address"
        }
      ],
      "stateMutability": "view",
      "type": "function"
    },
    {
      "inputs": [
        {
          "internalType": "address",
          "name": "wallet",
          "type": "address"
        }
      ],
      "name": "getUserDonations",
      "outputs": [
        {
          "internalType": "uint256",
          "name": "",
          "type": "uint256"
        }
      ],
      "stateMutability": "view",
      "type": "function"
    },
    {
      "inputs": [],
      "name": "missingBalanceToTarget",
      "outputs": [
        {
          "internalType": "uint256",
          "name": "",
          "type": "uint256"
        }
      ],
      "stateMutability": "view",
      "type": "function"
    },
    {
      "inputs": [],
      "name": "refund",
      "outputs": [],
      "stateMutability": "nonpayable",
      "type": "function"
    },
    {
      "inputs": [],
      "name": "withdrawDonations",
      "outputs": [],
      "stateMutability": "nonpayable",
      "type": "function"
    },
    {
      "stateMutability": "payable",
      "type": "receive"
    }
  ],
  "bytecode": "0x6101006040526001600260006101000a81548160ff0219169083151502179055506000600260016101000a81548160ff0219169083151502179055503480156200004857600080fd5b50604051620023a5380380620023a583398181016040528101906200006e9190620004c2565b80603c426200007e919062000598565b8111620000c2576040517f08c379a0000000000000000000000000000000000000000000000000000000008152600401620000b9906200065a565b60405180910390fd5b600a8661ffff1610158015620000dd575060648661ffff1611155b6200011f576040517f08c379a00000000000000000000000000000000000000000000000000000000081526004016200011690620006cc565b60405180910390fd5b6000831162000165576040517f08c379a00000000000000000000000000000000000000000000000000000000081526004016200015c9062000764565b60405180910390fd5b8473ffffffffffffffffffffffffffffffffffffffff163373ffffffffffffffffffffffffffffffffffffffff16036200019e57600080fd5b3373ffffffffffffffffffffffffffffffffffffffff1660808173ffffffffffffffffffffffffffffffffffffffff1681525050856000806101000a81548161ffff021916908361ffff1602179055508473ffffffffffffffffffffffffffffffffffffffff1660a08173ffffffffffffffffffffffffffffffffffffffff16815250508360019081620002339190620009c7565b508260c081815250508160e0818152505050505050505062000aae565b6000604051905090565b600080fd5b600080fd5b600061ffff82169050919050565b6200027d8162000264565b81146200028957600080fd5b50565b6000815190506200029d8162000272565b92915050565b600073ffffffffffffffffffffffffffffffffffffffff82169050919050565b6000620002d082620002a3565b9050919050565b620002e281620002c3565b8114620002ee57600080fd5b50565b6000815190506200030281620002d7565b92915050565b600080fd5b600080fd5b6000601f19601f8301169050919050565b7f4e487b7100000000000000000000000000000000000000000000000000000000600052604160045260246000fd5b6200035d8262000312565b810181811067ffffffffffffffff821117156200037f576200037e62000323565b5b80604052505050565b60006200039462000250565b9050620003a2828262000352565b919050565b600067ffffffffffffffff821115620003c557620003c462000323565b5b620003d08262000312565b9050602081019050919050565b60005b83811015620003fd578082015181840152602081019050620003e0565b60008484015250505050565b6000620004206200041a84620003a7565b62000388565b9050828152602081018484840111156200043f576200043e6200030d565b5b6200044c848285620003dd565b509392505050565b600082601f8301126200046c576200046b62000308565b5b81516200047e84826020860162000409565b91505092915050565b6000819050919050565b6200049c8162000487565b8114620004a857600080fd5b50565b600081519050620004bc8162000491565b92915050565b600080600080600060a08688031215620004e157620004e06200025a565b5b6000620004f1888289016200028c565b95505060206200050488828901620002f1565b945050604086015167ffffffffffffffff8111156200052857620005276200025f565b5b620005368882890162000454565b93505060606200054988828901620004ab565b92505060806200055c88828901620004ab565b9150509295509295909350565b7f4e487b7100000000000000000000000000000000000000000000000000000000600052601160045260246000fd5b6000620005a58262000487565b9150620005b28362000487565b9250828201905080821115620005cd57620005cc62000569565b5b92915050565b600082825260208201905092915050565b7f43616d706169676e206d757374206265206c69766520666f72206174206c656160008201527f737420323420686f757273000000000000000000000000000000000000000000602082015250565b600062000642602b83620005d3565b91506200064f82620005e4565b604082019050919050565b60006020820190508181036000830152620006758162000633565b9050919050565b7f496e636f72726563742046656500000000000000000000000000000000000000600082015250565b6000620006b4600d83620005d3565b9150620006c1826200067c565b602082019050919050565b60006020820190508181036000830152620006e781620006a5565b9050919050565b7f54686520616d6f756e7420726571756573746564206d7573742062652067726560008201527f61746572207468616e207a65726f000000000000000000000000000000000000602082015250565b60006200074c602e83620005d3565b91506200075982620006ee565b604082019050919050565b600060208201905081810360008301526200077f816200073d565b9050919050565b600081519050919050565b7f4e487b7100000000000000000000000000000000000000000000000000000000600052602260045260246000fd5b60006002820490506001821680620007d957607f821691505b602082108103620007ef57620007ee62000791565b5b50919050565b60008190508160005260206000209050919050565b60006020601f8301049050919050565b600082821b905092915050565b600060088302620008597fffffffffffffffffffffffffffffffffffffffffffffffffffffffffffffffff826200081a565b6200086586836200081a565b95508019841693508086168417925050509392505050565b6000819050919050565b6000620008a8620008a26200089c8462000487565b6200087d565b62000487565b9050919050565b6000819050919050565b620008c48362000887565b620008dc620008d382620008af565b84845462000827565b825550505050565b600090565b620008f3620008e4565b62000900818484620008b9565b505050565b5b8181101562000928576200091c600082620008e9565b60018101905062000906565b5050565b601f82111562000977576200094181620007f5565b6200094c846200080a565b810160208510156200095c578190505b620009746200096b856200080a565b83018262000905565b50505b505050565b600082821c905092915050565b60006200099c600019846008026200097c565b1980831691505092915050565b6000620009b7838362000989565b9150826002028217905092915050565b620009d28262000786565b67ffffffffffffffff811115620009ee57620009ed62000323565b5b620009fa8254620007c0565b62000a078282856200092c565b600060209050601f83116001811462000a3f576000841562000a2a578287015190505b62000a368582620009a9565b86555062000aa6565b601f19841662000a4f86620007f5565b60005b8281101562000a795784890151825560018201915060208501945060208101905062000a52565b8683101562000a99578489015162000a95601f89168262000989565b8355505b6001600288020188555050505b505050505050565b60805160a05160c05160e05161187062000b3560003960008181610120015281816105a801528181610b770152610cc70152600081816101c60152818161058401528181610b2401528181610d6d01528181610f230152610f540152600081816108f00152818161093f0152610a6c01526000818161088d0152610c0301526118706000f3fe6080604052600436106101025760003560e01c8063ac62f56611610095578063ce1b088a11610064578063ce1b088a146104e1578063d7557f18146104f8578063e9498c351461050f578063ed88c68e1461054d578063f05cb12e14610557576102b6565b8063ac62f56614610411578063accc58001461044e578063cc2c193a14610479578063cc6cb19a146104a4576102b6565b806360f5ac86116100d157806360f5ac861461035357806362d6fe001461037e578063732435b2146103a9578063aab9caa4146103e6576102b6565b80631182b179146102bb57806312498a70146102e65780633fd39c6114610311578063590e1ae31461033c576102b6565b366102b657600260009054906101000a900460ff16801561014257507f000000000000000000000000000000000000000000000000000000000000000042105b610181576040517f08c379a000000000000000000000000000000000000000000000000000000000815260040161017890610fe0565b60405180910390fd5b600034116101c4576040517f08c379a00000000000000000000000000000000000000000000000000000000081526004016101bb90611072565b60405180910390fd5b7f0000000000000000000000000000000000000000000000000000000000000000471115610227576040517f08c379a000000000000000000000000000000000000000000000000000000000815260040161021e90611104565b60405180910390fd5b34600460003373ffffffffffffffffffffffffffffffffffffffff1673ffffffffffffffffffffffffffffffffffffffff1681526020019081526020016000206000828254610276919061115d565b925050819055507f8e7cfdefcf8c12f8dccd26c94f385f22d656f8eafef6e8703d3b50a19dddf89d346040516102ac91906111a0565b60405180910390a1005b600080fd5b3480156102c757600080fd5b506102d0610582565b6040516102dd91906111a0565b60405180910390f35b3480156102f257600080fd5b506102fb6105a6565b60405161030891906111a0565b60405180910390f35b34801561031d57600080fd5b506103266105ca565b60405161033391906111d8565b60405180910390f35b34801561034857600080fd5b506103516105dc565b005b34801561035f57600080fd5b506103686107a1565b604051610375919061120e565b60405180910390f35b34801561038a57600080fd5b506103936107b4565b6040516103a091906112a8565b60405180910390f35b3480156103b557600080fd5b506103d060048036038101906103cb919061132d565b610842565b6040516103dd91906111a0565b60405180910390f35b3480156103f257600080fd5b506103fb61088b565b6040516104089190611369565b60405180910390f35b34801561041d57600080fd5b50610438600480360381019061043391906113b0565b6108af565b6040516104459190611369565b60405180910390f35b34801561045a57600080fd5b506104636108ee565b6040516104709190611369565b60405180910390f35b34801561048557600080fd5b5061048e610912565b60405161049b919061120e565b60405180910390f35b3480156104b057600080fd5b506104cb60048036038101906104c6919061132d565b610925565b6040516104d891906111a0565b60405180910390f35b3480156104ed57600080fd5b506104f661093d565b005b34801561050457600080fd5b5061050d610ad3565b005b34801561051b57600080fd5b50610536600480360381019061053191906113b0565b610c6b565b6040516105449291906113dd565b60405180910390f35b610555610cae565b005b34801561056357600080fd5b5061056c610f1f565b60405161057991906111a0565b60405180910390f35b7f000000000000000000000000000000000000000000000000000000000000000081565b7f000000000000000000000000000000000000000000000000000000000000000081565b60008054906101000a900461ffff1681565b600260009054906101000a900460ff161561062c576040517f08c379a000000000000000000000000000000000000000000000000000000000815260040161062390611452565b60405180910390fd5b600260019054906101000a900460ff161561067c576040517f08c379a0000000000000000000000000000000000000000000000000000000008152600401610673906114e4565b60405180910390fd5b6000600460003373ffffffffffffffffffffffffffffffffffffffff1673ffffffffffffffffffffffffffffffffffffffff16815260200190815260200160002054905060008111610703576040517f08c379a00000000000000000000000000000000000000000000000000000000081526004016106fa90611550565b60405180910390fd5b6000600460003373ffffffffffffffffffffffffffffffffffffffff1673ffffffffffffffffffffffffffffffffffffffff16815260200190815260200160002081905550600061075382610c6b565b5090503373ffffffffffffffffffffffffffffffffffffffff166108fc829081150290604051600060405180830381858888f1935050505015801561079c573d6000803e3d6000fd5b505050565b600260009054906101000a900460ff1681565b600180546107c19061159f565b80601f01602080910402602001604051908101604052809291908181526020018280546107ed9061159f565b801561083a5780601f1061080f5761010080835404028352916020019161083a565b820191906000526020600020905b81548152906001019060200180831161081d57829003601f168201915b505050505081565b6000600460008373ffffffffffffffffffffffffffffffffffffffff1673ffffffffffffffffffffffffffffffffffffffff168152602001908152602001600020549050919050565b7f000000000000000000000000000000000000000000000000000000000000000081565b600381815481106108bf57600080fd5b906000526020600020016000915054906101000a900473ffffffffffffffffffffffffffffffffffffffff1681565b7f000000000000000000000000000000000000000000000000000000000000000081565b600260019054906101000a900460ff1681565b60046020528060005260406000206000915090505481565b7f000000000000000000000000000000000000000000000000000000000000000073ffffffffffffffffffffffffffffffffffffffff163373ffffffffffffffffffffffffffffffffffffffff16146109cb576040517f08c379a00000000000000000000000000000000000000000000000000000000081526004016109c29061161c565b60405180910390fd5b600260009054906101000a900460ff1615610a1b576040517f08c379a0000000000000000000000000000000000000000000000000000000008152600401610a1290611452565b60405180910390fd5b600260019054906101000a900460ff16610a6a576040517f08c379a0000000000000000000000000000000000000000000000000000000008152600401610a61906116ae565b60405180910390fd5b7f000000000000000000000000000000000000000000000000000000000000000073ffffffffffffffffffffffffffffffffffffffff166108fc479081150290604051600060405180830381858888f19350505050158015610ad0573d6000803e3d6000fd5b50565b600260009054906101000a900460ff16610b22576040517f08c379a0000000000000000000000000000000000000000000000000000000008152600401610b199061171a565b60405180910390fd5b7f0000000000000000000000000000000000000000000000000000000000000000471015600260016101000a81548160ff021916908315150217905550600260019054906101000a900460ff1680610b9957507f000000000000000000000000000000000000000000000000000000000000000042115b610bd8576040517f08c379a0000000000000000000000000000000000000000000000000000000008152600401610bcf90611786565b60405180910390fd5b6000600260006101000a81548160ff0219169083151502179055506000610bfe47610c6b565b9150507f000000000000000000000000000000000000000000000000000000000000000073ffffffffffffffffffffffffffffffffffffffff166108fc829081150290604051600060405180830381858888f19350505050158015610c67573d6000803e3d6000fd5b5050565b60008060008060009054906101000a900461ffff1661ffff1684610c8f91906117d5565b905060008185610c9f9190611806565b90508082935093505050915091565b600260009054906101000a900460ff168015610ce957507f000000000000000000000000000000000000000000000000000000000000000042105b610d28576040517f08c379a0000000000000000000000000000000000000000000000000000000008152600401610d1f90610fe0565b60405180910390fd5b60003411610d6b576040517f08c379a0000000000000000000000000000000000000000000000000000000008152600401610d6290611072565b60405180910390fd5b7f0000000000000000000000000000000000000000000000000000000000000000471115610dce576040517f08c379a0000000000000000000000000000000000000000000000000000000008152600401610dc590611104565b60405180910390fd5b6000600460003373ffffffffffffffffffffffffffffffffffffffff1673ffffffffffffffffffffffffffffffffffffffff1681526020019081526020016000205403610e79576003339080600181540180825580915050600190039060005260206000200160009091909190916101000a81548173ffffffffffffffffffffffffffffffffffffffff021916908373ffffffffffffffffffffffffffffffffffffffff1602179055505b34600460003373ffffffffffffffffffffffffffffffffffffffff1673ffffffffffffffffffffffffffffffffffffffff1681526020019081526020016000206000828254610ec8919061115d565b925050819055503373ffffffffffffffffffffffffffffffffffffffff167f5d8bc849764969eb1bcc6d0a2f55999d0167c1ccec240a4f39cf664ca9c4148e34604051610f1591906111a0565b60405180910390a2565b60007f00000000000000000000000000000000000000000000000000000000000000004710610f515760009050610f80565b477f0000000000000000000000000000000000000000000000000000000000000000610f7d9190611806565b90505b90565b600082825260208201905092915050565b7f43616d706169676e20656e646564000000000000000000000000000000000000600082015250565b6000610fca600e83610f83565b9150610fd582610f94565b602082019050919050565b60006020820190508181036000830152610ff981610fbd565b9050919050565b7f54686520646f6e6174696f6e2076616c7565206d75737420626520677265617460008201527f6572207468616e207a65726f0000000000000000000000000000000000000000602082015250565b600061105c602c83610f83565b915061106782611000565b604082019050919050565b6000602082019050818103600083015261108b8161104f565b9050919050565b7f446f6e6174696f6e20657863656564732074686520616d6f756e74207265717560008201527f6573746564000000000000000000000000000000000000000000000000000000602082015250565b60006110ee602583610f83565b91506110f982611092565b604082019050919050565b6000602082019050818103600083015261111d816110e1565b9050919050565b6000819050919050565b7f4e487b7100000000000000000000000000000000000000000000000000000000600052601160045260246000fd5b600061116882611124565b915061117383611124565b925082820190508082111561118b5761118a61112e565b5b92915050565b61119a81611124565b82525050565b60006020820190506111b56000830184611191565b92915050565b600061ffff82169050919050565b6111d2816111bb565b82525050565b60006020820190506111ed60008301846111c9565b92915050565b60008115159050919050565b611208816111f3565b82525050565b600060208201905061122360008301846111ff565b92915050565b600081519050919050565b60005b83811015611252578082015181840152602081019050611237565b60008484015250505050565b6000601f19601f8301169050919050565b600061127a82611229565b6112848185610f83565b9350611294818560208601611234565b61129d8161125e565b840191505092915050565b600060208201905081810360008301526112c2818461126f565b905092915050565b600080fd5b600073ffffffffffffffffffffffffffffffffffffffff82169050919050565b60006112fa826112cf565b9050919050565b61130a816112ef565b811461131557600080fd5b50565b60008135905061132781611301565b92915050565b600060208284031215611343576113426112ca565b5b600061135184828501611318565b91505092915050565b611363816112ef565b82525050565b600060208201905061137e600083018461135a565b92915050565b61138d81611124565b811461139857600080fd5b50565b6000813590506113aa81611384565b92915050565b6000602082840312156113c6576113c56112ca565b5b60006113d48482850161139b565b91505092915050565b60006040820190506113f26000830185611191565b6113ff6020830184611191565b9392505050565b7f5468652063616d706169676e206973207374696c6c206f70656e000000000000600082015250565b600061143c601a83610f83565b915061144782611406565b602082019050919050565b6000602082019050818103600083015261146b8161142f565b9050919050565b7f5468652063616d706169676e207265616368656420746865207265717569726560008201527f6420616d6f756e74000000000000000000000000000000000000000000000000602082015250565b60006114ce602883610f83565b91506114d982611472565b604082019050919050565b600060208201905081810360008301526114fd816114c1565b9050919050565b7f4e6f20646f6e6174696f6e7320746f2077697468647261770000000000000000600082015250565b600061153a601883610f83565b915061154582611504565b602082019050919050565b600060208201905081810360008301526115698161152d565b9050919050565b7f4e487b7100000000000000000000000000000000000000000000000000000000600052602260045260246000fd5b600060028204905060018216806115b757607f821691505b6020821081036115ca576115c9611570565b5b50919050565b7f596f7520617265206e6f74207468652072656365697665720000000000000000600082015250565b6000611606601883610f83565b9150611611826115d0565b602082019050919050565b60006020820190508181036000830152611635816115f9565b9050919050565b7f5468652063616d706169676e20646964206e6f7420726561636820746865207260008201527f6571756972656420616d6f756e74000000000000000000000000000000000000602082015250565b6000611698602e83610f83565b91506116a38261163c565b604082019050919050565b600060208201905081810360008301526116c78161168b565b9050919050565b7f43616d706169676e20697320616c726561647920636c6f736564207965740000600082015250565b6000611704601e83610f83565b915061170f826116ce565b602082019050919050565b60006020820190508181036000830152611733816116f7565b9050919050565b7f5468652063616d706169676e2063616e206e6f7420626520636c6f7365640000600082015250565b6000611770601e83610f83565b915061177b8261173a565b602082019050919050565b6000602082019050818103600083015261179f81611763565b9050919050565b7f4e487b7100000000000000000000000000000000000000000000000000000000600052601260045260246000fd5b60006117e082611124565b91506117eb83611124565b9250826117fb576117fa6117a6565b5b828204905092915050565b600061181182611124565b915061181c83611124565b92508282039050818111156118345761183361112e565b5b9291505056fea2646970667358221220ed925dbb9d36c25a69ca9424286c1522153eb5f1d424922ce5c0da6510f6b7e764736f6c63430008130033",
  "linkReferences": {},
  "deployedLinkReferences": {}
}